:020000040000FA
:100000000C9462000C948A000C948A000C948A0070
:100010000C948A000C948A000C948A000C948A0038
:100020000C948A000C948A000C948A000C948A0028
:100030000C948A000C948A000C948A000C948A0018
:100040000C94D4070C948A000C948A000C948A00B7
:100050000C948A000C948A000C948A000C948A00F8
:100060000C948A000C948A000000000024002700F1
:100070002A000000000023002600290000000000E4
:10008000250028002B0004040404040404040202D4
:100090000202020203030303030301020408102007
:1000A0004080010204081020010204081020000012
:1000B0000008000201000003040700000000000027
:1000C0000000340911241FBECFEFD8E0DEBFCDBF42
:1000D00011E0A0E0B1E0EEE2F5E102C005900D9282
:1000E000A832B107D9F722E0A8E2B1E001C01D9221
:1000F000AD39B207E1F710E0C2E6D0E004C02197C5
:10010000FE010E948A0AC136D107C9F70E941E0863
:100110000C94950A0C94000080E991E008958330D6
:1001200081F028F4813099F08230A9F00895873069
:10013000A9F08830C9F08430B1F4809180008F7DBF
:1001400003C0809180008F7780938000089584B5EC
:100150008F7784BD089584B58F7DFBCF8091B000EB
:100160008F778093B00008958091B0008F7DF9CF94
:100170001F93CF93DF93EBEBF0E09491E7EAF0E08D
:10018000D491E3E9F0E0C491CC23B9F0182F99237E
:1001900019F0892F0E948F00EC2FF0E0EE0FFF1F67
:1001A000E458FF4FA591B4918FB7F894EC911111D9
:1001B00008C0D095DE23DC938FBFDF91CF911F91D4
:1001C0000895DE2BF8CFCF93DF93E0EBF0E084913E
:1001D000ECE9F0E0D491E8E8F0E0C491CC23A1F0A0
:1001E00081110E948F00EC2FF0E0EE0FFF1FEE5800
:1001F000FF4FA591B491EC91ED2381E090E009F4DB
:1002000080E0DF91CF91089580E090E0FACF3FB792
:10021000F8948091350190913601A0913701B09109
:10022000380126B5A89B05C02F3F19F00196A11DE6
:10023000B11D3FBFBA2FA92F982F8827BC01CD0130
:10024000620F711D811D911D42E0660F771F881F8F
:10025000991F4A95D1F708954F925F926F927F92BE
:100260009F92AF92BF92CF92DF92EF92FF920F9345
:100270001F93CF93DF9300D01F92CDB7DEB7D82E58
:1002800080918D0290918E02A0918F02B091900288
:10029000892B8A2B8B2BD9F00E94070100919902A0
:1002A00010919A0220919B0230919C02601B710B6D
:1002B000820B930B00918D0210918E0220918F0280
:1002C000309190026017710782079307C8F20E946D
:1002D00007016093990270939A0280939B02909316
:1002E0009C02E0919502F0919602309759F040916E
:1002F00091025091920260919302709194028D2D1F
:100300000995D82EE0909702F09098024D2C512C30
:10031000712C612CE114F10409F459C0D7011C9629
:10032000CC901C9780918B0290918C028436910521
:1003300010F41C961C92D701ED91FC91A280B38021
:1003400019821A821B82DD2079F1F701369610E0BE
:1003500000E02191222319F19280992001F130E0EF
:1003600050E040E02F5F3F4F4F4F5F4FC301B2015E
:100370000E944B0A9B01AC01892D90E0B0E0A0E007
:10038000BC01CD016F5F7F4F8F4F9F4F0E944B0A83
:10039000A1E0B0E0AC0FBD1FA00FB11F8C930F5FA9
:1003A0001F4F03301105A9F609811A812B81F7012E
:1003B0004585568562817381C701F5010995D7018D
:1003C0001C96CC921C971496ED90FC90A3CF809134
:1003D0008802909189029C012F5F3F4F30938902E0
:1003E0002093880249970CF44AC08FB7F894209163
:1003F00080023091810240918202509183028FBF2E
:100400008091840290918502A0918602B09187022A
:10041000281B390B4A0B5B0B21F421E030E040E054
:1004200050E0E0918802F091890288EE93E0E89F25
:10043000B001E99F700DF89F700D1124072E000C7C
:10044000880B990B0E941A0A30938C0220938B021E
:1004500010928902109288022FB7F894809180023E
:1004600090918102A0918202B09183022FBF80936C
:10047000840290938502A0938602B09387020F9026
:100480000F900F90DF91CF911F910F91FF90EF9000
:10049000DF90CF90BF90AF909F907F906F905F90D4
:1004A0004F9008958F929F92AF92BF92CF92DF921A
:1004B000EF92FF926B017C010E9407014B015C01EE
:1004C000C114D104E104F104B9F00E9407016819D4
:1004D00079098A099B09683E73408105910580F37B
:1004E00021E0C21AD108E108F10888EE880E83E005
:1004F000981EA11CB11CE4CFFF90EF90DF90CF902D
:10050000BF90AF909F908F9008950F931F93CF93BC
:10051000DF93209133012F5F322F377030933301F7
:1005200020FF2BC020E831FD2064347009F02062E8
:10053000205FFC01EC01239600E011E06485662356
:1005400029F070E0C8010E945B0A6F5F6187322F5B
:10055000369F030E30E0311D1124311110C0168278
:10056000662311F0615061873196EC17FD0731F772
:10057000DF91CF911F910F91089520E0D4CF31509A
:100580003683EECF4F925F927F928F929F92AF927F
:10059000BF92CF92DF92EF92FF920F931F93CF9370
:1005A000DF932C01EB010E940701F20127853089BE
:1005B000621B730B6A307105B0F3F8948A819B81DA
:1005C000181619060CF0CBC1E881F9810BB108604F
:1005D0007BB1777F7BB9B9848E812B2D281B822F2D
:1005E0002E834F85042E000C550BAA81BB81EC8411
:1005F000DD84CE84E394D394C3949F8138859A8418
:100600008B84108120E0F32E622F322F308111274E
:1006100088943111380F08F43FEF81958894E0FCFD
:10062000130F17958894E1FC130F17958894E2FC3B
:10063000130F17958894E3FC130F17958894E4FC27
:10064000130F17958894E5FC130F17958894E6FC13
:10065000130F17958894E7FC130F17958894232F91
:10066000E110212F8B0D122F002C0BB900C000C000
:1006700017FF7BB931812227889400C0002C7BB9F9
:100680003111390F00C0002C0BB900C000C016FF9B
:100690007BB908F43FEF9195889400C0002C7BB99A
:1006A000D0FC230F00C0002C0BB900C000C015FF08
:1006B0007BB927958894D1FC230F00C0002C7BB90F
:1006C0002795889400C0002C0BB900C000C014FF0F
:1006D0007BB9D2FC230F2795889400C0002C7BB9EE
:1006E000D3FC230F00C0002C0BB900C000C013FFC7
:1006F0007BB927958894D4FC230F00C0002C7BB9CC
:100700002795889400C0002C0BB900C000C012FFD0
:100710007BB9D5FC230F2795889400C0002C7BB9AA
:10072000D6FC230F00C0002C0BB900C000C011FF85
:100730007BB927958894D7FC230F00C0002C7BB988
:100740002795889400C0002C0BB900C000C010FF92
:100750007BB9132FD110122F990D00C0002C7BB93B
:1007600000C000C0002C0BB900C000C017FF7BB94F
:1007700032812227889400C0002C7BB931113F0DB3
:1007800000C0002C0BB900C000C016FF7BB908F4F4
:100790003FEFE40FF51F00C0002C7BB9C0FC230F16
:1007A00000C0002C0BB900C000C015FF7BB9279515
:1007B0008894C1FC230F00C0002C7BB92795889436
:1007C00000C0002C0BB900C000C014FF7BB9C2FCF4
:1007D000230F2795889400C0002C7BB9C3FC230FFE
:1007E00000C0002C0BB900C000C013FF7BB92795D7
:1007F0008894C4FC230F00C0002C7BB927958894F3
:1008000000C0002C0BB900C000C012FF7BB9C5FCB2
:10081000230F2795889400C0002C7BB9C6FC230FBA
:1008200000C0002C0BB900C000C011FF7BB9279598
:100830008894C7FC230F00C0002C7BB927958894AF
:1008400000C0002C0BB900C000C010FF7BB9132FF3
:10085000C110122FF19400C0002C7BB9F80C00C01D
:1008600000C00BB900C000C017FF7BB93081222740
:10087000889400C0002C7BB93111380F00C0002CC7
:100880000BB900C000C016FF7BB908F43FEF81959B
:10089000889400C0002C7BB9E0FC230F00C0002C22
:1008A0000BB900C000C015FF7BB927958894E1FC07
:1008B000230F00C0002C7BB92795889400C0002C22
:1008C0000BB900C000C014FF7BB9E2FC230F2795D1
:1008D000889400C0002C7BB9E3FC230F00C0002CDF
:1008E0000BB900C000C013FF7BB927958894E4FCC6
:1008F000230F00C0002C7BB92795889400C0002CE2
:100900000BB900C000C012FF7BB9E5FC230F27958F
:10091000889400C0002C7BB9E6FC230F00C0002C9B
:100920000BB900C000C011FF7BB927958894E7FC84
:10093000230F00C0002C7BB92795889400C0002CA1
:100940000BB900C000C010FF7BB9132FE110122FAC
:100950008B0D00C0002C7BB9119709F086CE4A811F
:100960005B8120EE31E0DA010E946F0ADC01CB01ED
:10097000F4E0B695A79597958795FA95D1F730E06D
:1009800020E0B901EAE94E9F040E611D5E9F600DF3
:10099000711D1124650F711D860F971FA11DB11DBB
:1009A000893E43E09407A105B10508F434C0885E90
:1009B0009340A109B10942E0B695A795979587950F
:1009C0004A95D1F747E0849F080E211D949F200D82
:1009D000311D1124290F311D6091320170E0860F05
:1009E000971F820F931F4091800250918102609166
:1009F000820270918302292F3327420F531F611DFA
:100A0000711D409380025093810260938202709323
:100A100083028093320178940E940701F201708B67
:100A20006787DF91CF911F910F91FF90EF90DF903B
:100A3000CF90BF90AF909F908F907F905F904F909E
:100A40000895539A08956F927F928F92CF92DF927A
:100A5000EF92FF920F931F93CF93DF93CDB7DEB743
:100A600062970FB6F894DEBF0FBECDBF6C017A015E
:100A70003801822EDC011C962C91CA0157FF04C05C
:100A800088279927841B950B7A8369839C838B83A2
:100A90009E838D836D867E868F86213049F5CE01BB
:100AA00001960E94850283E0888B1A8A198AF7FED4
:100AB00002C08DEF888BD601ED91FC910484F58501
:100AC000E02DBE016F5F7F4FC601099562960FB69C
:100AD000F894DEBF0FBECDBFDF91CF911F910F9174
:100AE000FF90EF90DF90CF908F907F906F90089560
:100AF0001C861B861A86198618861F82D4CFEF9211
:100B0000FF920F931F93CF93DF93CDB7DEB762971A
:100B10000FB6F894DEBF0FBECDBF7C01DC011C9682
:100B20008C917A8369835C834B835E834D830D87CD
:100B30001E872F878130F9F4CE0101960E9485022D
:100B4000188A1A8A198AD701ED91FC910484F585D7
:100B5000E02DBE016F5F7F4FC701099562960FB60A
:100B6000F894DEBF0FBECDBFDF91CF911F910F91E3
:100B7000FF90EF9008951C861B861A8619861886AA
:100B80001F82DECFE4E5F1E0808361834283339608
:100B900092E0E338F907C1F780918A020C942C01A6
:100BA00090E080E00895FC018585968508950F9377
:100BB0001F93CF93DF9300D01F92CDB7DEB7AB0169
:100BC00019821A821B82DC01ED91FC910190F08167
:100BD000E02D00E010E020E0BE016F5F7F4F09953F
:100BE0000F900F900F90DF91CF911F910F9108956B
:100BF0000E94900ACF930E94E30090932E0180936D
:100C00002D0162E370E080E090E00E9452020E94B9
:100C100090092AE030E040E050E00E94E80960FFDF
:100C200054C08091000190910101883B9B400CF4DD
:100C30004CC00E94900910922801C1E0C09331017C
:100C4000109201011092000126E030E040E050E0F7
:100C50000E94E8096F5F7F4F6330710509F4E0C0BF
:100C600088F461307105E1F062307105E1F050E027
:100C700040E070E060E090E080E00E94C2051092E9
:100C800031011FC06530710509F4D6C008F4D1C028
:100C90004FEF50E06630710551F770E060E0D0C072
:100CA00050E040E0FACF4FEF50E070E060E090E0BD
:100CB00080E00E94C2051092300110922F01C09373
:100CC0002801109201011092000180912D01909154
:100CD0002E0120912B0130912C018217930709F4EA
:100CE0007BC0019709F0B1C081E00E94B8008091FB
:100CF0002801882309F4A7C080912F019091300129
:100D0000883E93400CF49FC04FEF50E06FEF70E0CF
:100D10008FEF90E00E94C20564EF71E080E090E008
:100D20000E9452024FEF50E070E060E08FEF90E0E1
:100D30000E94C20564EF71E080E090E00E945202E0
:100D400050E040E06FEF70E08FEF90E00E94C2054E
:100D500064EF71E080E090E00E9452024FEF50E0BB
:100D60006FEF70E090E080E00E94C20564EF71E0F8
:100D700080E090E00E9452024FEF50E070E060E0AF
:100D800090E080E00E94C20564EF71E080E090E0B6
:100D90000E94520250E040E06FEF70E090E080E08F
:100DA0000E94C20564EF71E080E090E00E94520270
:100DB00050E040E070E060E08FEF90E00E94C205FC
:100DC00064EF71E080E090E00E94520262E370E024
:100DD00080E090E00E94520280912D0190912E01BE
:100DE00090932C0180932B0180912F0190913001E1
:100DF000883E23E0920724F020912801211123C08E
:100E000001969093300180932F0180910001909181
:100E1000010101969093010180930001CF91089503
:100E200050E040E06FEF70E090E080E00E94C2058B
:100E300048CF4FEF50E0F6CF50E040E06FEF70E06A
:100E40008FEF90E0F3CF0E94290780E00E94B80066
:100E5000BDCFC4E0D0E050E040E070E060E08FEF54
:100E600090E00E94C20564EF71E080E090E00E9493
:100E7000520250E040E070E060E090E080E00E94CC
:100E8000C20564EF71E080E090E00E945202219779
:100E900011F7109231011092300110922F0110922F
:100EA00001011092000150E040E070E060E090E04D
:100EB00080E00E94C20510922C0110922B0180E06C
:100EC0000E94B80064EF71E080E090E00E9452025E
:100ED0000E94E30090932E0180932D01892BC1F392
:100EE0000E94E300EC01019709F04AC080912901BA
:100EF00090912A01019690932A0180932901883BC1
:100F00009B40BCF10BE510E08BEAF82EE4E5F1E044
:100F1000D195C195D1098C2FC0838B5A8183F282E0
:100F2000339622E0E338F20799F780918A020E9413
:100F30002C0161E270E080E090E00E9452020150DA
:100F4000110921F750E040E070E060E090E080E0BF
:100F50000E94C20510922E0110922D0110922C01B8
:100F600010922B0110922A01109229010E94FA0579
:100F7000FDCF61E070E080E090E00E945202B0CFCF
:100F800010922A011092290180E00E94B80010926C
:100F90002E0110922D0110922C0110922B0162E370
:100FA00070E080E090E092CF1F920F920FB60F9208
:100FB00011242F933F938F939F93AF93BF9380916F
:100FC000800290918102A0918202B09183023091BF
:100FD000340123E0230F2D3758F50196A11DB11DD3
:100FE000209334018093800290938102A093820227
:100FF000B09383028091350190913601A091370121
:10100000B09138010196A11DB11D809335019093D7
:101010003601A0933701B0933801BF91AF919F91F2
:101020008F913F912F910F900FBE0F901F901895A9
:1010300026E8230F0296A11DB11DD2CF789484B566
:10104000826084BD84B5816084BD85B5826085BDC4
:1010500085B5816085BD80916E00816080936E0052
:101060001092810080918100826080938100809144
:1010700081008160809381008091800081608093F5
:1010800080008091B10084608093B1008091B000B5
:1010900081608093B00080917A00846080937A00B0
:1010A00080917A00826080937A0080917A008160DA
:1010B00080937A0080917A00806880937A00109201
:1010C000C10080914C01811145C010923E011092E7
:1010D0003D018FEF80934101809342018093430152
:1010E00080934401809345018093460181E0809381
:1010F000470110924901109248011092400110924C
:101100003F018091970290919802892B31F48BE3F3
:1011100091E09093980280939702E0913901F091C9
:101120003A01309721F08BE391E0958384838BE340
:1011300091E090933A018093390110924B01109203
:101140004A018AE191E090933C0180933B0181E068
:1011500080934C01539A84E591E090933E018093F3
:101160003D0184E690E0909349018093480180918D
:101170008D0290918E02A0918F02B0919002843CDA
:1011800029E09207A105B10520F484EC99E0A0E0E4
:10119000B0E080938D0290938E02A0938F02B09363
:1011A0009002ECE9F0E02491E8E8F0E084918823F3
:1011B000C1F090E0880F991FFC01E859FF4FC591DD
:1011C000D491FC01E458FF4FA591B4919FB7F894D6
:1011D0008881E22FE0958E2388838C91E823EC931D
:1011E0009FBFE7EAF0E02491E3E9F0E084918823EF
:1011F00099F090E0880F991FFC01E859FF4FA591E5
:10120000B491FC01E458FF4F859194918FB7F89405
:10121000EC91E22BEC938FBF80E00E94B80068EE67
:1012200073E080E090E00E9452024FEF50E06FEFD9
:1012300070E08FEF90E00E94C20568E873E180E003
:1012400090E00E94520250E040E070E060E090E0E8
:1012500080E00E94C205C0E0D0E00E94FA0520971D
:10126000E1F30E940000F9CFEAE8F2E08FEF80831B
:1012700012821182148613868FEF9FEFDC01878321
:101280009087A187B28708958F929F92AF92BF9265
:10129000CF92DF92EF92FF92CF93DF93EC016881C0
:1012A00079818A819B81611571058105910521F400
:1012B00064E279ED8BE597E02DE133EF41E050E01A
:1012C0000E94E80949015A019B01AC01A7EAB1E477
:1012D0000E94070A6B017C01ACEEB4EFA5019401FA
:1012E0000E94150AC60ED71EE81EF91EF7FE06C09C
:1012F00081E0C81AD108E10880E8F80AC882D982DA
:10130000EA82FB82C701B6019F77DF91CF91FF9000
:10131000EF90DF90CF90BF90AF909F908F90089507
:101320008F929F92AF92BF92CF92DF92EF92FF92F5
:101330006091020170910301809104019091050177
:10134000611571058105910521F464E279ED8BE564
:1013500097E02DE133EF41E050E00E94E8094901B8
:101360005A019B01AC01A7EAB1E40E94070A6B0194
:101370007C01ACEEB4EFA50194010E94150AC60EE3
:10138000D71EE81EF91EF7FE06C081E0C81AD10874
:10139000E10880E8F80AC0920201D0920301E092CD
:1013A0000401F0920501C701B6019F77FF90EF900D
:1013B000DF90CF90BF90AF909F908F9008956093F3
:1013C0000201709303018093040190930501089535
:1013D000052E97FB1EF400940E94FF0957FD07D0CD
:1013E0000E941A0A07FC03D04EF40C94FF09509592
:1013F0004095309521953F4F4F4F5F4F0895909501
:101400008095709561957F4F8F4F9F4F08950E94F3
:101410003C0AA59F900DB49F900DA49F800D911D37
:1014200011240895B7FF0C94070A0E94070A821B33
:10143000930B0895A1E21A2EAA1BBB1BFD010DC040
:10144000AA1FBB1FEE1FFF1FA217B307E407F50774
:1014500020F0A21BB30BE40BF50B661F771F881F50
:10146000991F1A9469F760957095809590959B01E6
:10147000AC01BD01CF010895A29FB001B39FC0018F
:10148000A39F700D811D1124911DB29F700D811DB0
:101490001124911D0895DB018F939F930E94070AE9
:1014A000BF91AF91A29F800D911DA39F900DB29F00
:1014B000900D1124089597FB072E16F4009407D081
:1014C00077FD09D00E94760A07FC05D03EF490957E
:1014D00081959F4F0895709561957F4F08950E9463
:1014E0003C0AB7FF0895821B930B0895AA1BBB1BF0
:1014F00051E107C0AA1FBB1FA617B70710F0A61B14
:10150000B70B881F991F5A95A9F780959095BC0134
:10151000CD010895EE0FFF1F0590F491E02D099481
:1015200081E090E0F8940C94950AF894FFCF10278E
:101530000100000000000000F805F805F805D705D7
:10154000D305D005000000007F0523052105D70540
:06155000D3058C00C2026D
:107E0000112484B714BE81FFF0D085E080938100F7
:107E100082E08093C00088E18093C10086E0809377
:107E2000C20080E18093C4008EE0C9D0259A86E02C
:107E300020E33CEF91E0309385002093840096BBD3
:107E4000B09BFECF1D9AA8958150A9F7CC24DD24C4
:107E500088248394B5E0AB2EA1E19A2EF3E0BF2EE7
:107E6000A2D0813461F49FD0082FAFD0023811F036
:107E7000013811F484E001C083E08DD089C08234E0
:107E800011F484E103C0853419F485E0A6D080C0E4
:107E9000853579F488D0E82EFF2485D0082F10E0AE
:107EA000102F00270E291F29000F111F8ED06801E7
:107EB0006FC0863521F484E090D080E0DECF843638
:107EC00009F040C070D06FD0082F6DD080E0C81688
:107ED00080E7D80618F4F601B7BEE895C0E0D1E017
:107EE00062D089930C17E1F7F0E0CF16F0E7DF06D8
:107EF00018F0F601B7BEE89568D007B600FCFDCFD4
:107F0000A601A0E0B1E02C9130E011968C91119780
:107F100090E0982F8827822B932B1296FA010C0160
:107F200087BEE89511244E5F5F4FF1E0A038BF0790
:107F300051F7F601A7BEE89507B600FCFDCF97BE46
:107F4000E89526C08437B1F42ED02DD0F82E2BD052
:107F50003CD0F601EF2C8F010F5F1F4F84911BD097
:107F6000EA94F801C1F70894C11CD11CFA94CF0C13
:107F7000D11C0EC0853739F428D08EE10CD085E9AC
:107F80000AD08FE07ACF813511F488E018D01DD067
:107F900080E101D065CF982F8091C00085FFFCCF94
:107FA0009093C60008958091C00087FFFCCF809118
:107FB000C00084FD01C0A8958091C6000895E0E648
:107FC000F0E098E1908380830895EDDF803219F02E
:107FD00088E0F5DFFFCF84E1DECF1F93182FE3DFCA
:107FE0001150E9F7F2DF1F91089580E0E8DFEE27F6
:047FF000FF270994CA
:027FFE00040479
:00000001FF
